{
  "_format": "hh-sol-artifact-1",
  "contractName": "CredzOnChain",
  "sourceName": "contracts/CredzOnChain.sol",
  "abi": [
    {
      "inputs": [],
      "stateMutability": "nonpayable",
      "type": "constructor"
    },
    {
      "anonymous": false,
      "inputs": [
        {
          "indexed": true,
          "internalType": "uint256",
          "name": "eventId",
          "type": "uint256"
        },
        {
          "indexed": true,
          "internalType": "address",
          "name": "recipient",
          "type": "address"
        },
        {
          "indexed": true,
          "internalType": "address",
          "name": "issuer",
          "type": "address"
        }
      ],
      "name": "BadgeIssued",
      "type": "event"
    },
    {
      "anonymous": false,
      "inputs": [
        {
          "indexed": true,
          "internalType": "uint256",
          "name": "eventId",
          "type": "uint256"
        },
        {
          "indexed": false,
          "internalType": "string",
          "name": "name",
          "type": "string"
        },
        {
          "indexed": true,
          "internalType": "address",
          "name": "organizer",
          "type": "address"
        }
      ],
      "name": "EventCreated",
      "type": "event"
    },
    {
      "inputs": [
        {
          "internalType": "uint256",
          "name": "_eventId",
          "type": "uint256"
        },
        {
          "internalType": "address",
          "name": "_wallet",
          "type": "address"
        }
      ],
      "name": "checkClaimStatus",
      "outputs": [
        {
          "internalType": "bool",
          "name": "",
          "type": "bool"
        }
      ],
      "stateMutability": "view",
      "type": "function"
    },
    {
      "inputs": [
        {
          "internalType": "address",
          "name": "",
          "type": "address"
        },
        {
          "internalType": "uint256",
          "name": "",
          "type": "uint256"
        }
      ],
      "name": "claimedBadgesByRecipient",
      "outputs": [
        {
          "internalType": "uint256",
          "name": "",
          "type": "uint256"
        }
      ],
      "stateMutability": "view",
      "type": "function"
    },
    {
      "inputs": [
        {
          "internalType": "string",
          "name": "_name",
          "type": "string"
        },
        {
          "internalType": "string",
          "name": "_description",
          "type": "string"
        },
        {
          "internalType": "uint256",
          "name": "_eventType",
          "type": "uint256"
        },
        {
          "internalType": "uint256",
          "name": "_timestamp",
          "type": "uint256"
        }
      ],
      "name": "createEvent",
      "outputs": [
        {
          "internalType": "uint256",
          "name": "",
          "type": "uint256"
        }
      ],
      "stateMutability": "nonpayable",
      "type": "function"
    },
    {
      "inputs": [
        {
          "internalType": "uint256",
          "name": "",
          "type": "uint256"
        }
      ],
      "name": "events",
      "outputs": [
        {
          "internalType": "string",
          "name": "name",
          "type": "string"
        },
        {
          "internalType": "string",
          "name": "description",
          "type": "string"
        },
        {
          "internalType": "uint256",
          "name": "eventType",
          "type": "uint256"
        },
        {
          "internalType": "uint256",
          "name": "timestamp",
          "type": "uint256"
        },
        {
          "internalType": "address",
          "name": "organizer",
          "type": "address"
        }
      ],
      "stateMutability": "view",
      "type": "function"
    },
    {
      "inputs": [
        {
          "internalType": "uint256",
          "name": "_eventId",
          "type": "uint256"
        }
      ],
      "name": "getBadgeDetails",
      "outputs": [
        {
          "internalType": "string",
          "name": "",
          "type": "string"
        },
        {
          "internalType": "string",
          "name": "",
          "type": "string"
        },
        {
          "internalType": "string",
          "name": "",
          "type": "string"
        },
        {
          "internalType": "uint256",
          "name": "",
          "type": "uint256"
        }
      ],
      "stateMutability": "view",
      "type": "function"
    },
    {
      "inputs": [
        {
          "internalType": "address",
          "name": "_owner",
          "type": "address"
        }
      ],
      "name": "getBadgesByOwner",
      "outputs": [
        {
          "components": [
            {
              "internalType": "string",
              "name": "name",
              "type": "string"
            },
            {
              "internalType": "string",
              "name": "description",
              "type": "string"
            },
            {
              "internalType": "uint256",
              "name": "eventType",
              "type": "uint256"
            },
            {
              "internalType": "uint256",
              "name": "timestamp",
              "type": "uint256"
            },
            {
              "internalType": "address",
              "name": "organizer",
              "type": "address"
            }
          ],
          "internalType": "struct CredzOnChain.Event[]",
          "name": "",
          "type": "tuple[]"
        }
      ],
      "stateMutability": "view",
      "type": "function"
    },
    {
      "inputs": [
        {
          "internalType": "uint256",
          "name": "_eventId",
          "type": "uint256"
        }
      ],
      "name": "getEvent",
      "outputs": [
        {
          "internalType": "string",
          "name": "",
          "type": "string"
        },
        {
          "internalType": "string",
          "name": "",
          "type": "string"
        },
        {
          "internalType": "uint256",
          "name": "",
          "type": "uint256"
        },
        {
          "internalType": "uint256",
          "name": "",
          "type": "uint256"
        },
        {
          "internalType": "address",
          "name": "",
          "type": "address"
        }
      ],
      "stateMutability": "view",
      "type": "function"
    },
    {
      "inputs": [],
      "name": "getLastEventId",
      "outputs": [
        {
          "internalType": "uint256",
          "name": "",
          "type": "uint256"
        }
      ],
      "stateMutability": "view",
      "type": "function"
    },
    {
      "inputs": [],
      "name": "getNextEventId",
      "outputs": [
        {
          "internalType": "uint256",
          "name": "",
          "type": "uint256"
        }
      ],
      "stateMutability": "view",
      "type": "function"
    },
    {
      "inputs": [
        {
          "internalType": "uint256",
          "name": "",
          "type": "uint256"
        },
        {
          "internalType": "address",
          "name": "",
          "type": "address"
        }
      ],
      "name": "hasClaimed",
      "outputs": [
        {
          "internalType": "bool",
          "name": "",
          "type": "bool"
        }
      ],
      "stateMutability": "view",
      "type": "function"
    },
    {
      "inputs": [
        {
          "internalType": "uint256",
          "name": "_eventId",
          "type": "uint256"
        },
        {
          "internalType": "address",
          "name": "_recipient",
          "type": "address"
        }
      ],
      "name": "issueBadge",
      "outputs": [],
      "stateMutability": "nonpayable",
      "type": "function"
    }
  ],
  "bytecode": "0x608060405234801561001057600080fd5b506000600381905550611aba806100286000396000f3fe608060405234801561001057600080fd5b50600436106100a95760003560e01c8063873f6f9e11610071578063873f6f9e146101975780639df5be6e146101c75780639df8cbe5146101e5578063bce062b914610215578063d96b834c14610245578063ff52aeec14610261576100a9565b80630b791430146100ae57806315365a14146100e25780632950c4bd14610112578063478b9a1f146101455780636d1884e014610163575b600080fd5b6100c860048036038101906100c39190610ed4565b610291565b6040516100d9959493929190610fe1565b60405180910390f35b6100fc60048036038101906100f7919061106e565b6103f7565b60405161010991906110ae565b60405180910390f35b61012c60048036038101906101279190610ed4565b610428565b60405161013c94939291906110c9565b60405180910390f35b61014d61058f565b60405161015a91906110ae565b60405180910390f35b61017d60048036038101906101789190610ed4565b6105b8565b60405161018e959493929190610fe1565b60405180910390f35b6101b160048036038101906101ac9190611123565b610738565b6040516101be919061117e565b60405180910390f35b6101cf610767565b6040516101dc91906110ae565b60405180910390f35b6101ff60048036038101906101fa9190611199565b610771565b60405161020c919061136d565b60405180910390f35b61022f600480360381019061022a91906114c4565b610a1f565b60405161023c91906110ae565b60405180910390f35b61025f600480360381019061025a9190611123565b610b6f565b005b61027b60048036038101906102769190611123565b610ddd565b604051610288919061117e565b60405180910390f35b60006020528060005260406000206000915090508060000180546102b490611592565b80601f01602080910402602001604051908101604052809291908181526020018280546102e090611592565b801561032d5780601f106103025761010080835404028352916020019161032d565b820191906000526020600020905b81548152906001019060200180831161031057829003601f168201915b50505050509080600101805461034290611592565b80601f016020809104026020016040519081016040528092919081815260200182805461036e90611592565b80156103bb5780601f10610390576101008083540402835291602001916103bb565b820191906000526020600020905b81548152906001019060200180831161039e57829003601f168201915b5050505050908060020154908060030154908060040160009054906101000a900473ffffffffffffffffffffffffffffffffffffffff16905085565b6002602052816000526040600020818154811061041357600080fd5b90600052602060002001600091509150505481565b6060806060600080600080878152602001908152602001600020905080600001816001018782805461045990611592565b80601f016020809104026020016040519081016040528092919081815260200182805461048590611592565b80156104d25780601f106104a7576101008083540402835291602001916104d2565b820191906000526020600020905b8154815290600101906020018083116104b557829003601f168201915b505050505092508180546104e590611592565b80601f016020809104026020016040519081016040528092919081815260200182805461051190611592565b801561055e5780601f106105335761010080835404028352916020019161055e565b820191906000526020600020905b81548152906001019060200180831161054157829003601f168201915b50505050509150604051806060016040528060238152602001611a6260239139909450945094509450509193509193565b600080600354036105a357600090506105b5565b60016003546105b291906115f2565b90505b90565b60608060008060008060008088815260200190815260200160002090508060000181600101826002015483600301548460040160009054906101000a900473ffffffffffffffffffffffffffffffffffffffff1684805461061890611592565b80601f016020809104026020016040519081016040528092919081815260200182805461064490611592565b80156106915780601f1061066657610100808354040283529160200191610691565b820191906000526020600020905b81548152906001019060200180831161067457829003601f168201915b505050505094508380546106a490611592565b80601f01602080910402602001604051908101604052809291908181526020018280546106d090611592565b801561071d5780601f106106f25761010080835404028352916020019161071d565b820191906000526020600020905b81548152906001019060200180831161070057829003601f168201915b50505050509350955095509550955095505091939590929450565b60016020528160005260406000206020528060005260406000206000915091509054906101000a900460ff1681565b6000600354905090565b60606000600260008473ffffffffffffffffffffffffffffffffffffffff1673ffffffffffffffffffffffffffffffffffffffff16815260200190815260200160002090506000818054905067ffffffffffffffff8111156107d6576107d5611399565b5b60405190808252806020026020018201604052801561080f57816020015b6107fc610e45565b8152602001906001900390816107f45790505b50905060005b8280549050811015610a145760008084838154811061083757610836611626565b5b906000526020600020015481526020019081526020016000206040518060a001604052908160008201805461086b90611592565b80601f016020809104026020016040519081016040528092919081815260200182805461089790611592565b80156108e45780601f106108b9576101008083540402835291602001916108e4565b820191906000526020600020905b8154815290600101906020018083116108c757829003601f168201915b505050505081526020016001820180546108fd90611592565b80601f016020809104026020016040519081016040528092919081815260200182805461092990611592565b80156109765780601f1061094b57610100808354040283529160200191610976565b820191906000526020600020905b81548152906001019060200180831161095957829003601f168201915b5050505050815260200160028201548152602001600382015481526020016004820160009054906101000a900473ffffffffffffffffffffffffffffffffffffffff1673ffffffffffffffffffffffffffffffffffffffff1673ffffffffffffffffffffffffffffffffffffffff16815250508282815181106109fc576109fb611626565b5b60200260200101819052508080600101915050610815565b508092505050919050565b60008060036000815480929190610a3590611655565b9190505590506040518060a001604052808781526020018681526020018581526020018481526020013373ffffffffffffffffffffffffffffffffffffffff168152506000808381526020019081526020016000206000820151816000019081610a9f9190611849565b506020820151816001019081610ab59190611849565b50604082015181600201556060820151816003015560808201518160040160006101000a81548173ffffffffffffffffffffffffffffffffffffffff021916908373ffffffffffffffffffffffffffffffffffffffff1602179055509050503373ffffffffffffffffffffffffffffffffffffffff16817f40fb05b814a900c99fa0a76d919dfdeaf3389540e4ca70f97ba40ca9a38f379788604051610b5b919061191b565b60405180910390a380915050949350505050565b3373ffffffffffffffffffffffffffffffffffffffff1660008084815260200190815260200160002060040160009054906101000a900473ffffffffffffffffffffffffffffffffffffffff1673ffffffffffffffffffffffffffffffffffffffff1614610c12576040517f08c379a0000000000000000000000000000000000000000000000000000000008152600401610c09906119af565b60405180910390fd5b6001600083815260200190815260200160002060008273ffffffffffffffffffffffffffffffffffffffff1673ffffffffffffffffffffffffffffffffffffffff16815260200190815260200160002060009054906101000a900460ff1615610cb0576040517f08c379a0000000000000000000000000000000000000000000000000000000008152600401610ca790611a41565b60405180910390fd5b600180600084815260200190815260200160002060008373ffffffffffffffffffffffffffffffffffffffff1673ffffffffffffffffffffffffffffffffffffffff16815260200190815260200160002060006101000a81548160ff021916908315150217905550600260008273ffffffffffffffffffffffffffffffffffffffff1673ffffffffffffffffffffffffffffffffffffffff1681526020019081526020016000208290806001815401808255809150506001900390600052602060002001600090919091909150553373ffffffffffffffffffffffffffffffffffffffff168173ffffffffffffffffffffffffffffffffffffffff16837f057a96e2a2396600fa3190f0b5a4df67637e1ccec503899a9e04c6e4aa43b68060405160405180910390a45050565b60006001600084815260200190815260200160002060008373ffffffffffffffffffffffffffffffffffffffff1673ffffffffffffffffffffffffffffffffffffffff16815260200190815260200160002060009054906101000a900460ff16905092915050565b6040518060a0016040528060608152602001606081526020016000815260200160008152602001600073ffffffffffffffffffffffffffffffffffffffff1681525090565b6000604051905090565b600080fd5b600080fd5b6000819050919050565b610eb181610e9e565b8114610ebc57600080fd5b50565b600081359050610ece81610ea8565b92915050565b600060208284031215610eea57610ee9610e94565b5b6000610ef884828501610ebf565b91505092915050565b600081519050919050565b600082825260208201905092915050565b60005b83811015610f3b578082015181840152602081019050610f20565b60008484015250505050565b6000601f19601f8301169050919050565b6000610f6382610f01565b610f6d8185610f0c565b9350610f7d818560208601610f1d565b610f8681610f47565b840191505092915050565b610f9a81610e9e565b82525050565b600073ffffffffffffffffffffffffffffffffffffffff82169050919050565b6000610fcb82610fa0565b9050919050565b610fdb81610fc0565b82525050565b600060a0820190508181036000830152610ffb8188610f58565b9050818103602083015261100f8187610f58565b905061101e6040830186610f91565b61102b6060830185610f91565b6110386080830184610fd2565b9695505050505050565b61104b81610fc0565b811461105657600080fd5b50565b60008135905061106881611042565b92915050565b6000806040838503121561108557611084610e94565b5b600061109385828601611059565b92505060206110a485828601610ebf565b9150509250929050565b60006020820190506110c36000830184610f91565b92915050565b600060808201905081810360008301526110e38187610f58565b905081810360208301526110f78186610f58565b9050818103604083015261110b8185610f58565b905061111a6060830184610f91565b95945050505050565b6000806040838503121561113a57611139610e94565b5b600061114885828601610ebf565b925050602061115985828601611059565b9150509250929050565b60008115159050919050565b61117881611163565b82525050565b6000602082019050611193600083018461116f565b92915050565b6000602082840312156111af576111ae610e94565b5b60006111bd84828501611059565b91505092915050565b600081519050919050565b600082825260208201905092915050565b6000819050602082019050919050565b600082825260208201905092915050565b600061120e82610f01565b61121881856111f2565b9350611228818560208601610f1d565b61123181610f47565b840191505092915050565b61124581610e9e565b82525050565b61125481610fc0565b82525050565b600060a08301600083015184820360008601526112778282611203565b915050602083015184820360208601526112918282611203565b91505060408301516112a6604086018261123c565b5060608301516112b9606086018261123c565b5060808301516112cc608086018261124b565b508091505092915050565b60006112e3838361125a565b905092915050565b6000602082019050919050565b6000611303826111c6565b61130d81856111d1565b93508360208202850161131f856111e2565b8060005b8581101561135b578484038952815161133c85826112d7565b9450611347836112eb565b925060208a01995050600181019050611323565b50829750879550505050505092915050565b6000602082019050818103600083015261138781846112f8565b905092915050565b600080fd5b600080fd5b7f4e487b7100000000000000000000000000000000000000000000000000000000600052604160045260246000fd5b6113d182610f47565b810181811067ffffffffffffffff821117156113f0576113ef611399565b5b80604052505050565b6000611403610e8a565b905061140f82826113c8565b919050565b600067ffffffffffffffff82111561142f5761142e611399565b5b61143882610f47565b9050602081019050919050565b82818337600083830152505050565b600061146761146284611414565b6113f9565b90508281526020810184848401111561148357611482611394565b5b61148e848285611445565b509392505050565b600082601f8301126114ab576114aa61138f565b5b81356114bb848260208601611454565b91505092915050565b600080600080608085870312156114de576114dd610e94565b5b600085013567ffffffffffffffff8111156114fc576114fb610e99565b5b61150887828801611496565b945050602085013567ffffffffffffffff81111561152957611528610e99565b5b61153587828801611496565b935050604061154687828801610ebf565b925050606061155787828801610ebf565b91505092959194509250565b7f4e487b7100000000000000000000000000000000000000000000000000000000600052602260045260246000fd5b600060028204905060018216806115aa57607f821691505b6020821081036115bd576115bc611563565b5b50919050565b7f4e487b7100000000000000000000000000000000000000000000000000000000600052601160045260246000fd5b60006115fd82610e9e565b915061160883610e9e565b92508282039050818111156116205761161f6115c3565b5b92915050565b7f4e487b7100000000000000000000000000000000000000000000000000000000600052603260045260246000fd5b600061166082610e9e565b91507fffffffffffffffffffffffffffffffffffffffffffffffffffffffffffffffff8203611692576116916115c3565b5b600182019050919050565b60008190508160005260206000209050919050565b60006020601f8301049050919050565b600082821b905092915050565b6000600883026116ff7fffffffffffffffffffffffffffffffffffffffffffffffffffffffffffffffff826116c2565b61170986836116c2565b95508019841693508086168417925050509392505050565b6000819050919050565b600061174661174161173c84610e9e565b611721565b610e9e565b9050919050565b6000819050919050565b6117608361172b565b61177461176c8261174d565b8484546116cf565b825550505050565b600090565b61178961177c565b611794818484611757565b505050565b5b818110156117b8576117ad600082611781565b60018101905061179a565b5050565b601f8211156117fd576117ce8161169d565b6117d7846116b2565b810160208510156117e6578190505b6117fa6117f2856116b2565b830182611799565b50505b505050565b600082821c905092915050565b600061182060001984600802611802565b1980831691505092915050565b6000611839838361180f565b9150826002028217905092915050565b61185282610f01565b67ffffffffffffffff81111561186b5761186a611399565b5b6118758254611592565b6118808282856117bc565b600060209050601f8311600181146118b357600084156118a1578287015190505b6118ab858261182d565b865550611913565b601f1984166118c18661169d565b60005b828110156118e9578489015182556001820191506020850194506020810190506118c4565b868310156119065784890151611902601f89168261180f565b8355505b6001600288020188555050505b505050505050565b600060208201905081810360008301526119358184610f58565b905092915050565b7f4f6e6c7920746865206576656e74206f7267616e697a65722063616e2069737360008201527f7565206261646765732e00000000000000000000000000000000000000000000602082015250565b6000611999602a83610f0c565b91506119a48261193d565b604082019050919050565b600060208201905081810360008301526119c88161198c565b9050919050565b7f426164676520616c726561647920636c61696d656420666f722074686973206560008201527f76656e74206279207468697320726563697069656e742e000000000000000000602082015250565b6000611a2b603783610f0c565b9150611a36826119cf565b604082019050919050565b60006020820190508181036000830152611a5a81611a1e565b905091905056fe68747470733a2f2f6578616d706c652e636f6d2f62616467655f696d6167652e706e67a26469706673582212208d2e937e14ab9e3c0d1091f515c3ac78035cac23c263d7b2d0408f5f84699ac764736f6c63430008180033",
  "linkReferences": {},
  "deployedLinkReferences": {}
}